{
  "_format": "hh-sol-artifact-1",
  "contractName": "Solmate",
  "sourceName": "contracts/Solmate.sol",
  "abi": [
    {
      "inputs": [
        {
          "internalType": "address",
          "name": "_depositToken",
          "type": "address"
        },
        {
          "internalType": "address",
          "name": "_aiAgent",
          "type": "address"
        }
      ],
      "stateMutability": "nonpayable",
      "type": "constructor"
    },
    {
      "inputs": [
        {
          "internalType": "address",
          "name": "owner",
          "type": "address"
        }
      ],
      "name": "OwnableInvalidOwner",
      "type": "error"
    },
    {
      "inputs": [
        {
          "internalType": "address",
          "name": "account",
          "type": "address"
        }
      ],
      "name": "OwnableUnauthorizedAccount",
      "type": "error"
    },
    {
      "inputs": [],
      "name": "ReentrancyGuardReentrantCall",
      "type": "error"
    },
    {
      "inputs": [
        {
          "internalType": "address",
          "name": "token",
          "type": "address"
        }
      ],
      "name": "SafeERC20FailedOperation",
      "type": "error"
    },
    {
      "anonymous": false,
      "inputs": [
        {
          "indexed": true,
          "internalType": "address",
          "name": "oldAgent",
          "type": "address"
        },
        {
          "indexed": true,
          "internalType": "address",
          "name": "newAgent",
          "type": "address"
        }
      ],
      "name": "AIAgentUpdated",
      "type": "event"
    },
    {
      "anonymous": false,
      "inputs": [
        {
          "indexed": true,
          "internalType": "address",
          "name": "user",
          "type": "address"
        },
        {
          "indexed": false,
          "internalType": "uint256",
          "name": "amount",
          "type": "uint256"
        }
      ],
      "name": "Deposited",
      "type": "event"
    },
    {
      "anonymous": false,
      "inputs": [
        {
          "indexed": true,
          "internalType": "address",
          "name": "previousOwner",
          "type": "address"
        },
        {
          "indexed": true,
          "internalType": "address",
          "name": "newOwner",
          "type": "address"
        }
      ],
      "name": "OwnershipTransferred",
      "type": "event"
    },
    {
      "anonymous": false,
      "inputs": [
        {
          "indexed": false,
          "internalType": "string",
          "name": "strategyId",
          "type": "string"
        },
        {
          "indexed": false,
          "internalType": "uint256",
          "name": "amount",
          "type": "uint256"
        }
      ],
      "name": "StrategyExecuted",
      "type": "event"
    },
    {
      "anonymous": false,
      "inputs": [
        {
          "indexed": true,
          "internalType": "address",
          "name": "user",
          "type": "address"
        },
        {
          "indexed": false,
          "internalType": "uint256",
          "name": "amount",
          "type": "uint256"
        }
      ],
      "name": "Withdrawn",
      "type": "event"
    },
    {
      "anonymous": false,
      "inputs": [
        {
          "indexed": false,
          "internalType": "uint256",
          "name": "amount",
          "type": "uint256"
        }
      ],
      "name": "YieldHarvested",
      "type": "event"
    },
    {
      "inputs": [],
      "name": "aiAgent",
      "outputs": [
        {
          "internalType": "address",
          "name": "",
          "type": "address"
        }
      ],
      "stateMutability": "view",
      "type": "function"
    },
    {
      "inputs": [
        {
          "internalType": "uint256",
          "name": "amount",
          "type": "uint256"
        }
      ],
      "name": "deposit",
      "outputs": [],
      "stateMutability": "nonpayable",
      "type": "function"
    },
    {
      "inputs": [],
      "name": "depositToken",
      "outputs": [
        {
          "internalType": "contract IERC20",
          "name": "",
          "type": "address"
        }
      ],
      "stateMutability": "view",
      "type": "function"
    },
    {
      "inputs": [
        {
          "internalType": "address",
          "name": "",
          "type": "address"
        }
      ],
      "name": "deposits",
      "outputs": [
        {
          "internalType": "uint256",
          "name": "",
          "type": "uint256"
        }
      ],
      "stateMutability": "view",
      "type": "function"
    },
    {
      "inputs": [
        {
          "internalType": "address",
          "name": "token",
          "type": "address"
        },
        {
          "internalType": "uint256",
          "name": "amount",
          "type": "uint256"
        }
      ],
      "name": "emergencyWithdraw",
      "outputs": [],
      "stateMutability": "nonpayable",
      "type": "function"
    },
    {
      "inputs": [
        {
          "internalType": "string",
          "name": "strategyId",
          "type": "string"
        },
        {
          "internalType": "uint256",
          "name": "amount",
          "type": "uint256"
        },
        {
          "internalType": "address",
          "name": "target",
          "type": "address"
        },
        {
          "internalType": "bytes",
          "name": "data",
          "type": "bytes"
        }
      ],
      "name": "executeStrategy",
      "outputs": [
        {
          "internalType": "bytes",
          "name": "",
          "type": "bytes"
        }
      ],
      "stateMutability": "nonpayable",
      "type": "function"
    },
    {
      "inputs": [
        {
          "internalType": "address",
          "name": "user",
          "type": "address"
        }
      ],
      "name": "getUserShare",
      "outputs": [
        {
          "internalType": "uint256",
          "name": "",
          "type": "uint256"
        }
      ],
      "stateMutability": "view",
      "type": "function"
    },
    {
      "inputs": [],
      "name": "owner",
      "outputs": [
        {
          "internalType": "address",
          "name": "",
          "type": "address"
        }
      ],
      "stateMutability": "view",
      "type": "function"
    },
    {
      "inputs": [
        {
          "internalType": "uint256",
          "name": "amount",
          "type": "uint256"
        }
      ],
      "name": "recordYield",
      "outputs": [],
      "stateMutability": "nonpayable",
      "type": "function"
    },
    {
      "inputs": [],
      "name": "renounceOwnership",
      "outputs": [],
      "stateMutability": "nonpayable",
      "type": "function"
    },
    {
      "inputs": [
        {
          "internalType": "address",
          "name": "newAgent",
          "type": "address"
        }
      ],
      "name": "setAIAgent",
      "outputs": [],
      "stateMutability": "nonpayable",
      "type": "function"
    },
    {
      "inputs": [],
      "name": "totalDeposits",
      "outputs": [
        {
          "internalType": "uint256",
          "name": "",
          "type": "uint256"
        }
      ],
      "stateMutability": "view",
      "type": "function"
    },
    {
      "inputs": [],
      "name": "totalYieldEarned",
      "outputs": [
        {
          "internalType": "uint256",
          "name": "",
          "type": "uint256"
        }
      ],
      "stateMutability": "view",
      "type": "function"
    },
    {
      "inputs": [
        {
          "internalType": "address",
          "name": "newOwner",
          "type": "address"
        }
      ],
      "name": "transferOwnership",
      "outputs": [],
      "stateMutability": "nonpayable",
      "type": "function"
    },
    {
      "inputs": [
        {
          "internalType": "uint256",
          "name": "amount",
          "type": "uint256"
        }
      ],
      "name": "withdraw",
      "outputs": [],
      "stateMutability": "nonpayable",
      "type": "function"
    }
  ],
  "bytecode": "0x60a060405234801561001057600080fd5b506040516110a03803806110a083398101604081905261002f9161015e565b338061005657604051631e4fbdf760e01b8152600060048201526024015b60405180910390fd5b61005f816100f2565b5060017f9b779b17422d0df92223018b32b4d1fa46e071723d6817e2486d003becc55f00556001600160a01b0382166100ca5760405162461bcd60e51b815260206004820152600d60248201526c24b73b30b634b2103a37b5b2b760991b604482015260640161004d565b6001600160a01b03918216608052600380546001600160a01b03191691909216179055610191565b600080546001600160a01b038381166001600160a01b0319831681178455604051919092169283917f8be0079c531659141344cd1fd0a4f28419497f9722a3daafe3b4186f6b6457e09190a35050565b80516001600160a01b038116811461015957600080fd5b919050565b6000806040838503121561017157600080fd5b61017a83610142565b915061018860208401610142565b90509250929050565b608051610ed86101c8600039600081816101e00152818161031d015281816103e70152818161060c015261077d0152610ed86000f3fe608060405234801561001057600080fd5b50600436106100f55760003560e01c8063a6d5b73211610097578063cc00967911610066578063cc00967914610202578063f2fde38b1461020b578063fc7e286d1461021e578063fe5ef6cd1461023e57600080fd5b8063a6d5b732146101a2578063b6b55f25146101b5578063bbbaee4c146101c8578063c89039c5146101db57600080fd5b8063715018a6116100d3578063715018a61461014b5780637d882097146101535780638da5cb5b1461016a57806395ccea671461018f57600080fd5b806305a55ed5146100fa5780632e1a7d4d146101235780636ebe941b14610138575b600080fd5b61010d610108366004610c6b565b610251565b60405161011a9190610cf8565b60405180910390f35b610136610131366004610d46565b61051e565b005b610136610146366004610d5f565b610683565b6101366106dd565b61015c60025481565b60405190815260200161011a565b6000546001600160a01b03165b6040516001600160a01b03909116815260200161011a565b61013661019d366004610d81565b6106f1565b600354610177906001600160a01b031681565b6101366101c3366004610d46565b610723565b61015c6101d6366004610d5f565b610814565b6101777f000000000000000000000000000000000000000000000000000000000000000081565b61015c60045481565b610136610219366004610d5f565b610866565b61015c61022c366004610d5f565b60016020526000908152604090205481565b61013661024c366004610d46565b6108a1565b6003546060906001600160a01b031633148061027757506000546001600160a01b031633145b6102b95760405162461bcd60e51b815260206004820152600e60248201526d139bdd08185d5d1a1bdc9a5e995960921b60448201526064015b60405180910390fd5b6102c161094e565b6001600160a01b0384166103085760405162461bcd60e51b815260206004820152600e60248201526d125b9d985b1a59081d185c99d95d60921b60448201526064016102b0565b6040516370a0823160e01b81523060048201527f00000000000000000000000000000000000000000000000000000000000000006001600160a01b0316906370a0823190602401602060405180830381865afa15801561036c573d6000803e3d6000fd5b505050506040513d601f19601f820116820180604052508101906103909190610dab565b8511156103d45760405162461bcd60e51b8152602060048201526012602482015271496e73756666696369656e742066756e647360701b60448201526064016102b0565b841561040e5761040e6001600160a01b037f000000000000000000000000000000000000000000000000000000000000000016858761096a565b600080856001600160a01b0316858560405161042b929190610dc4565b6000604051808303816000865af19150503d8060008114610468576040519150601f19603f3d011682016040523d82523d6000602084013e61046d565b606091505b5091509150816104bf5760405162461bcd60e51b815260206004820152601960248201527f537472617465677920657865637574696f6e206661696c65640000000000000060448201526064016102b0565b7f967c2a3d21d6001f5ed872635cf9e4a320c90180d6caed65f90623cea6d535e78989896040516104f293929190610dd4565b60405180910390a19150506105146001600080516020610e8383398151915255565b9695505050505050565b61052661094e565b6000811161056b5760405162461bcd60e51b81526020600482015260126024820152710416d6f756e74206d757374206265203e20360741b60448201526064016102b0565b336000908152600160205260409020548111156105c15760405162461bcd60e51b8152602060048201526014602482015273496e73756666696369656e742062616c616e636560601b60448201526064016102b0565b33600090815260016020526040812080548392906105e0908490610e23565b9250508190555080600260008282546105f99190610e23565b9091555061063390506001600160a01b037f00000000000000000000000000000000000000000000000000000000000000001633836109eb565b60405181815233907f7084f5476618d8e60b11ef0d7d3f06914655adb8793e28ff7f018d4c76d505d5906020015b60405180910390a26106806001600080516020610e8383398151915255565b50565b61068b6109f8565b600380546001600160a01b038381166001600160a01b0319831681179093556040519116919082907f0ac42006b88adb1efcf4e9c3898bf1f0ad6b79559ababbfdf9358497d5ccbac290600090a35050565b6106e56109f8565b6106ef6000610a25565b565b6106f96109f8565b61071f61070e6000546001600160a01b031690565b6001600160a01b03841690836109eb565b5050565b61072b61094e565b600081116107705760405162461bcd60e51b81526020600482015260126024820152710416d6f756e74206d757374206265203e20360741b60448201526064016102b0565b6107a56001600160a01b037f000000000000000000000000000000000000000000000000000000000000000016333084610a75565b33600090815260016020526040812080548392906107c4908490610e36565b9250508190555080600260008282546107dd9190610e36565b909155505060405181815233907f2da466a7b24304f47e87fa2e1e5a81b9831ce54fec19055ce277ca2f39ba42c490602001610661565b600060025460000361082857506000919050565b6002546001600160a01b03831660009081526001602052604090205461085690670de0b6b3a7640000610e49565b6108609190610e60565b92915050565b61086e6109f8565b6001600160a01b03811661089857604051631e4fbdf760e01b8152600060048201526024016102b0565b61068081610a25565b6003546001600160a01b03163314806108c457506000546001600160a01b031633145b6109015760405162461bcd60e51b815260206004820152600e60248201526d139bdd08185d5d1a1bdc9a5e995960921b60448201526064016102b0565b80600460008282546109139190610e36565b90915550506040518181527feb2d114a827fe0da3db4c0e374010959cf461f7ed76987aeff51666dea9add9b9060200160405180910390a150565b610956610ab1565b6002600080516020610e8383398151915255565b6109778383836000610ae1565b6109e657610989838360006001610ae1565b6109b157604051635274afe760e01b81526001600160a01b03841660048201526024016102b0565b6109be8383836001610ae1565b6109e657604051635274afe760e01b81526001600160a01b03841660048201526024016102b0565b505050565b6109be8383836001610b47565b6000546001600160a01b031633146106ef5760405163118cdaa760e01b81523360048201526024016102b0565b600080546001600160a01b038381166001600160a01b0319831681178455604051919092169283917f8be0079c531659141344cd1fd0a4f28419497f9722a3daafe3b4186f6b6457e09190a35050565b610a83848484846001610b94565b610aab57604051635274afe760e01b81526001600160a01b03851660048201526024016102b0565b50505050565b600080516020610e83833981519152546002036106ef57604051633ee5aeb560e01b815260040160405180910390fd5b60405163095ea7b360e01b60008181526001600160a01b038616600452602485905291602083604481808b5af192506001600051148316610b3b578383151615610b2e573d6000823e3d81fd5b6000873b113d1516831692505b60405250949350505050565b60405163a9059cbb60e01b60008181526001600160a01b038616600452602485905291602083604481808b5af192506001600051148316610b3b578383151615610b2e573d6000823e3d81fd5b6040516323b872dd60e01b60008181526001600160a01b038781166004528616602452604485905291602083606481808c5af192506001600051148316610bf4578383151615610be7573d6000823e3d81fd5b6000883b113d1516831692505b60405250600060605295945050505050565b60008083601f840112610c1857600080fd5b50813567ffffffffffffffff811115610c3057600080fd5b602083019150836020828501011115610c4857600080fd5b9250929050565b80356001600160a01b0381168114610c6657600080fd5b919050565b60008060008060008060808789031215610c8457600080fd5b863567ffffffffffffffff80821115610c9c57600080fd5b610ca88a838b01610c06565b909850965060208901359550869150610cc360408a01610c4f565b94506060890135915080821115610cd957600080fd5b50610ce689828a01610c06565b979a9699509497509295939492505050565b600060208083528351808285015260005b81811015610d2557858101830151858201604001528201610d09565b506000604082860101526040601f19601f8301168501019250505092915050565b600060208284031215610d5857600080fd5b5035919050565b600060208284031215610d7157600080fd5b610d7a82610c4f565b9392505050565b60008060408385031215610d9457600080fd5b610d9d83610c4f565b946020939093013593505050565b600060208284031215610dbd57600080fd5b5051919050565b8183823760009101908152919050565b604081528260408201528284606083013760006060848301015260006060601f19601f8601168301019050826020830152949350505050565b634e487b7160e01b600052601160045260246000fd5b8181038181111561086057610860610e0d565b8082018082111561086057610860610e0d565b808202811582820484141761086057610860610e0d565b600082610e7d57634e487b7160e01b600052601260045260246000fd5b50049056fe9b779b17422d0df92223018b32b4d1fa46e071723d6817e2486d003becc55f00a2646970667358221220e3fff348d227768f528990bad5b6bb000c511b83053aeb5ef1971e87e20a1fe764736f6c63430008140033",
  "linkReferences": {},
  "deployedLinkReferences": {}
}